:020000040000FA
:10000000800300104902000051020000530200006A
:1000100055020000570200005902000000000000D5
:100020000000000000000000000000005B02000073
:100030005D020000000000005F020000610200009D
:100040006302000013070000630200006302000067
:10005000630200006302000063020000630200000C
:1000600063020000630200006302000063020000FC
:1000700063020000630200006302000063020000EC
:1000800063020000630200006302000063020000DC
:1000900063020000630200006302000063020000CC
:1000A0005F0F0000630200006302000063020000B3
:1000B00063020000630200006302000063020000AC
:1000C00063020000630200006302000000F002F817
:1000D00000F03AF80AA090E8000C82448344AAF1A8
:1000E0000107DA4501D100F02FF8AFF2090EBAE8A6
:1000F0000F0013F0010F18BFFB1A43F0010318475C
:10010000601D0000901D0000103A24BF78C878C11F
:10011000FAD8520724BF30C830C144BF04680C600D
:10012000704700000023002400250026103A28BF55
:1001300078C1FBD8520728BF30C148BF0B60704759
:100140001FB51FBD10B510BD00F09FF81146FFF799
:10015000F7FF00F04FFB00F0BDF803B4FFF7F2FF2C
:1001600003BC00F0C1F8000010B500F0C9F810BDE4
:100170007047704770471FB5044614F0080F2AD027
:10018000032000F0BFFE2B4909682B4A1288022386
:1001900003FB0211884217D0274800888030264987
:1001A000088008460088C0F30900088008460088D7
:1001B00022490988401AC0F30900B0F5007F0AD12E
:1001C00001201F49087006E000201D4908701A48E8
:1001D00000881A4908800A20F0B1164800681649BC
:1001E0000988022202FB010000900420ADF80400FF
:1001F0000020ADF80600134800680290002003902C
:10020000039820F00200801C03906946032000F050
:10021000C3FD032000F03CFE1FBD704770477047D0
:100220007047704770477047704770477047704716
:10023000704700002C0000103A0000103800001039
:100240003C0000102800001009488047094800477A
:10025000FEE7FEE7FEE7FEE7FEE7FEE7FEE7FEE776
:10026000FEE7FEE704480549034A054B70470000D6
:100270003D140000CD00000080010010800300103C
:1002800080010010704770477047754600F028F8ED
:10029000AE4605006946534620F00700854618B073
:1002A00020B5FFF7DFFFBDE820404FF000064FF01C
:1002B00000074FF000084FF0000B21F00701AC469B
:1002C000ACE8C009ACE8C009ACE8C009ACE8C009BA
:1002D0008D4670470446AFF300802046FFF73DFF90
:1002E000004870471C01001001491820ABBEFEE712
:1002F000260002007047000000000000FFFFFFFF23
:100300000020EB490880EB490870EB4908704FF07A
:100310000110EA4908600020E9490860E9490860DD
:10032000704710B5E849002000F097FC10BD10B5EB
:10033000E6488088402801DD402401E0E3488488C5
:10034000E24822460168802000F0B5FC0446DF4800
:1003500000682044DD49086008468088001B8880CA
:1003600010BD10B5D9480168002000F076FC0446A5
:10037000D64800682044D549086008468088001B9C
:10038000888010BD10B500221146802000F093FC3B
:1003900010BD10B5CE49002000F05FFC10BD10B5B7
:1003A0000446082C6FD2DFE804F06E04F2F16E6EA2
:1003B000F0EFFFF7B6FFC4490978C80900F004FC64
:1003C000C148C088C1498880BF480078C0F3411047
:1003D00010B1012879D190E0BB4840780C2875D243
:1003E000DFE800F0060D8815881D333A41555C8121
:1003F00001F054FA00B9E1E0FFF799FF7BE000203B
:1004000001F0ACFA00B9D9E0FFF7BCFF73E00120BE
:1004100001F0A4FA00B9D1E0FFF7B4FF6BE000BF30
:10042000A948007810F01F0F06D1A748807840F047
:100430008000A049087001E0002001E000BF012019
:1004400000B9BBE0FFF79EFF55E001F0CBF900B922
:10045000B4E0FFF76CFF4EE0002000F0DDFB002071
:100460009A49888047E000BF9748007810F01F0F36
:1004700003D191489549086001E0002001E000BFE8
:10048000012008B99AE010E1FFF751FF33E001F0D5
:10049000DBFA00B992E0FFF775FF2CE000BF8A4855
:1004A000007800F01F00012814D18348007870B153
:1004B0008548007987490978884208DA82480079B6
:1004C000854908448149086003E076E012E0002095
:1004D00004E001E0002001E000BF012000B96DE070
:1004E000FFF725FF07E001F089FB00B966E0FFF7A1
:1004F00049FF00E062E000BF67E07348007810F059
:100500001F0004D0012803D0022854D12DE055E06B
:100510006D48007938B16C480079012803D06A48E9
:100520000079022820D16848407882280BD004DC6A
:10053000012814D0812816D104E0832804D084280F
:1005400011D102E000BF00BF00BF00F02FFE28B1B4
:100550005F485E490860FFF7EAFE2DE003E05C4873
:100560005A49086028E000BF28E0574840788228B0
:100570000FD004DC012818D081281AD108E0832884
:1005800008D0842815D106E08BE086E06CE01EE000
:1005900000BF00BF00BF00F071FE28B14C484B49BE
:1005A0000860FFF7C4FE07E003E0494847490860D8
:1005B00002E000BF02E001E007E000BF802000F0A1
:1005C0002BFB00204149888000BF00BF6DE03E4802
:1005D0000078C00945D13D48808880B3FFF7C1FE4F
:1005E0003A48808858BB38480078C0F3411010B1B1
:1005F000012834D100E0E1E73348007810F01F0013
:1006000004D0012803D0022827D119E0D6E72E48CC
:10061000007938B12C480079012803D02A480079A4
:1006200002280BD128484078012806D100F0FEFDB1
:1006300010B1FFF7A7FE11E000BF00BFBEE712E058
:1006400021484078012806D100F01AFE10B1FFF7CA
:1006500099FE03E000BF00BFB0E7AFE700E0ADE701
:1006600001E0FFF796FE20E0174800780121B1EB8A
:10067000D01F02D1FFF75BFE0EE00E48007810F0AD
:10068000800F09D00B48007800F07F0009490870FE
:100690000846007800F091F907E0002000F0C9FA60
:1006A00003E0802000F0C5FA00BF00BF10BD0000CD
:1006B00000000010020000100300001004000010F1
:1006C000080000100C00001020000010180000109E
:1006D0005C0000101000001011000010744909683F
:1006E00041F08071724A116000BF7149486810F092
:1006F000004FFAD0096821F080716D4A1160F8212D
:1007000001EA1021082202EAD0121144694A11803C
:10071000704710B568480078002836D067480068F0
:100720006749098830F911306648008864490988AA
:10073000401AC0F30904B4F5607F04D16048008812
:10074000401C5F490880802C04D95D480088401C0B
:100750005B4908805A480088C0F30900584908805E
:10076000002B05DA58480068C01A5749086004E0B1
:100770005548006818445449086054480068434389
:100780001B1403F500439BB201E04FF400435048B3
:10079000007808B14FF400434FF6C07018404D493F
:1007A00008604D4801880068401C4B4A106088056D
:1007B000800D1AD1FFF792FF48480088B0F5004F2E
:1007C00003D100204149086006E0444800883949C7
:1007D000098848433D4908603B480068030D0020F4
:1007E00039490860072B00DD072301204FF0402125
:1007F000086010BD1CB500F0B2FE3948406820F416
:100800007010374948600846406840F4101048604E
:100810003448006840F480503349C1F8C40033487C
:10082000234908604FF400402A49086030480068B6
:10083000C0F381000190019830B1012809D002284D
:100840000BD003280ED000BF2A4800688008009013
:100850000DE028480068009009E02648006840083C
:10086000009004E023480068C008009000BF00BF6B
:100870004FF4FA410098B0FBF1F0401E4FF04021D8
:100880008861032048610120486000BF0121814048
:1008900042094FF0E02303EB8202C2F8001100BFCF
:1008A00000F0F5F8012000F037F900BFFEE7000086
:1008B000004003403E0000103C0000102C000010DF
:1008C000380000103A000010400000103400001002
:1008D0003000001000C0084044000010500000101C
:1008E00000C00240C4C00F4000C00F40040E2000F2
:1008F000A8C10F405800001001460A07D00E11F0A1
:10090000800F00D0401C70471021FE4A1160FE4944
:10091000C1F8100200BFFD49096811F0100FFAD0AC
:1009200070471022F74B1A60F74AC2F8100200BF56
:10093000F64A126812F0100FFAD01022F14B1A602A
:10094000F14AC2F8101200BFF04A126812F0100FFC
:10095000FAD0704710B504460B461020E9490860EC
:100960002046FFF7C9FF4FF4A06141EA0040E64985
:10097000C1F8100200BFE548006810F0100FFAD06F
:100980001020E0490860E048C0F8103200BFDF489E
:10099000006810F0100FFAD010BD01463020D94A7F
:1009A0001060D948C0F8101200BFD848006810F095
:1009B000200FFAD0D6480068704710B5044644F0BE
:1009C00080004FF4807242EA0041D248FFF7A9FF4D
:1009D00044F080004FF4807242EA0041CD48FFF7B6
:1009E000A0FF10BD0021CC4A11604FF04001C64A63
:1009F000C2F84C124FF00101C74A11604FF040019C
:100A0000C14AC2F84C1200BFC049096811F4807F86
:100A1000FAD04FF0FF31C14A11606FF04001BA4A7D
:100A2000C2F834124FF0FF31B64A11604FF00D0199
:100A3000A2F104021160BA49BA4A11604FF0FF31C5
:100A4000B94A1160B94A11604FF04001A2F10402A5
:100A500011604FF0FF31B64A1160B64A1160B64AD4
:100A600011604FF00701B54A11604FF00001B44A20
:100A700011605160084607E00021B24A42F8201098
:100A8000B14A42F82010401C2028F5D3704700B529
:100A9000AE48406820F07050AC4948600846406855
:100AA00040F0A05048600846C068A9490840A749DE
:100AB000C8600846C068A7490843A449C8600846FA
:100AC000006920F4402008610846006940F4802055
:100AD0000861A148006840F00040A049C1F8C40086
:100AE0004FF012009E49086000BF9E48006800F069
:100AF00012001228F9D118200121814042094FF03B
:100B0000E02303EB8202C2F8001100BFFFF76AFF87
:100B10000020FFF752FF00BD10B504460CB10120C4
:100B200000E000204FF4807242EA00418E48FFF757
:100B3000F8FE10BD7047704700B58C48007810F083
:100B4000020F03D08A498848FFF7EBFE00BD7047CB
:100B500010B504460CB1012000E000204FF4807273
:100B600042EA00418348FFF7DCFE03208249086027
:100B700000BF6648006810F4807FFAD04FF48070A0
:100B80006049086010BD10B503469878FFF7B4FEC1
:100B90000446794800684FF0010101FA04F140EA87
:100BA00001005949C1F844025B4804609888C1F8C3
:100BB0004C0200BF5548006810F4807FFAD04FF413
:100BC00080705049086010BD704730B5044620461B
:100BD000FFF792FE694941EA004589132846FFF76D
:100BE000A0FE30BD30B504462046FFF785FE6349C0
:100BF00041EA004562492846FFF793FE30BD30B513
:100C000004462046FFF778FE5C4941EA0045891317
:100C10002846FFF786FE30BD30B504462046FFF774
:100C20006BFE564941EA004551492846FFF779FED7
:100C300030BD30B504462046FFF75EFE4F4941EA1D
:100C4000004589132846FFF76CFE30BD10B50446F9
:100C50004C492046FFF77EFE10BDF0B505460F4615
:100C600005F00F00012101EB80004749086000BF3B
:100C70004648046814F4006FFAD0C4F3090400264F
:100C800005E02148D0F8180238603F1D761CE01CB2
:100C9000B6EB900FF5D300203B49086041F24820A5
:100CA00040FA05F010F0010F03D136492846FFF74E
:100CB00051FE2046F0BDF0B506460D46144606F03E
:100CC0000F00022101EB80002F4908600E48C0F898
:100CD00024424FF0000706E028682D49086005F11E
:100CE000040507F1010704F10300B7EB900FF3D3FC
:100CF00000202549086027493046FFF72BFE204693
:100D0000F0BD000008C2005000C0005000C20050FA
:100D100014C200500005D00048C2005038C2005034
:100D20000000082080C2005054C200508CC2005005
:100D3000A4C20050B0C20050BCC2005094C20050C7
:100D4000480000109C0000100000082000C0024075
:100D5000CFFFFFCF10000020C4C00F4000C00F40E5
:100D6000F4CF0050F8CF00500005FE000000001046
:100D7000000101000005D80044C2005000054000F9
:100D8000000120000005F20028C2005020C20050DF
:100D90001CC200500005FA002DE9F04381460C46C4
:100DA000207BC0F340054846FFF7A6FD804600279C
:100DB000E64850F8283017E01F46207B10F0010F5E
:100DC00011D1E34850F82500381AE24951F82510AE
:100DD000B0FBF1F6E04850F825000121B14088430E
:100DE000DD4941F825003B68002BE5D1002608E0ED
:100DF000D94850F825100120B040014200D102E04E
:100E0000761C202EF4D300BF202E02D10020BDE896
:100E1000F083D14850F825100120B0400143CE485E
:100E200040F82510CA4850F82500CA4951F8251045
:100E300006FB01034FB1207B10F0010F05D03B6092
:100E4000786840F00400786005E0C04840F8283039
:100E5000C24840F82830002001C3207BC0F3800046
:100E6000217BC1F3400140EA0110E18840EA4110D2
:100E7000A18840EA014001C3206801C3A089C0F3F2
:100E80000720000201C30DB1A06818600120BEE771
:100E900000B503461846FFF72FFD01218140B048F9
:100EA000016000BD00B503461846FFF725FD01218E
:100EB0008140AC48016000BD70B506463046FFF782
:100EC0001BFDA64951F820400CB9002070BDE56813
:100ED000C5F343000A2812D2DFE800F00507090B2A
:100EE000111111110D0F0120F0E70220EEE7032090
:100EF000ECE70520EAE70420E8E70620E6E74FF6FE
:100F0000FF70E3E730B505462846FFF7F5FC934947
:100F100051F8203013B94FF0FF3030BD9C682046A7
:100F2000FBE730B505462846FFF7E6FC8B4951F84C
:100F3000203013B94FF0FF3030BDDC68200CFBE7E8
:100F400000B58948FFF7E0FC8848FFF726FD034617
:100F50008648FFF722FD43EA0023184600BD2DE92D
:100F6000F0478348076817F0080F1CD00820814914
:100F700008608148FFF7C8FC8048FFF70EFD064671
:100F800016F0100F03D0FFF72DFDFFF7EDF816F068
:100F9000080F07D016F0040F02D0FFF7CBFD01E0D9
:100FA000FFF7C9FDD0E017F0010F01D0FFF7E0F81F
:100FB00017F0040F49D04FF000097148D0F8308283
:100FC00000243CE0C84500D13BE00120A04010EAED
:100FD000080F32D00120A04040EA0909650801202D
:100FE000A0406849086000BF6148006810F0200F09
:100FF000FAD06548066814F0010F15D154B916F0FF
:10100000040F07D06148006820B1604801680120E2
:10101000884713E05D4850F8250070B15B4850F8F0
:1010200025100220884708E0584850F8250020B1D4
:10103000564850F825100320884700BF641C202C18
:10104000C0D300BF04204B4908605148006810F02D
:10105000010F24D04F4806684FF002041BE0012026
:10106000A040304216D0650814F0010F09D147485E
:1010700050F8250070B1454850F8251008208847E1
:1010800008E0424850F8250020B1404850F82510AB
:1010900009208847641C202CE1D33F4806603C4867
:1010A000006810F0020F24D03C4806684FF002049C
:1010B0001BE00120A040304216D0650814F0010F5B
:1010C00009D1324850F8250070B1304850F8251049
:1010D0000A20884708E02D4850F8250020B12B4809
:1010E00050F825100B208847641C202CE1D32C4895
:1010F00006602748006810F0040F24D029480668CD
:101100004FF002041BE00120A040304216D06508D9
:1011100014F0010F09D11D4850F8250070B11B488B
:1011200050F825100C20884708E0184850F8250092
:1011300020B1164850F825100D208847641C202C3B
:10114000E1D31948066000BFBDE8F0879C0000109D
:10115000501E0000581E000048000010000008202B
:1011600088C200508CC200500005F5000002F50056
:1011700000C2005008C200500005FE000002FE0040
:1011800000C0005038C2005014C200502C1D000096
:1011900090C20050A0C20050A4C20050ACC2005087
:1011A000B0C20050B8C20050BCC200503548808860
:1011B000B0F5007F38D13348807890BB3148C07893
:1011C000012802D002282ED10AE02E48407881283A
:1011D00005D12D4800782D4908700120704722E084
:1011E00028484078812806D082280AD083280DD04C
:1011F000842817D110E0264800882449088001205F
:10120000ECE70020214908800120E7E74FF48070D7
:101210001E4908800120E1E704201C4908800120C4
:10122000DCE701E000BF00BF0020D7E71548808859
:10123000B0F5007F20D113488078E8B91148C07814
:10124000012802D0022816D10AE00E484078012871
:1012500005D10E4800780C490870012070470AE05B
:1012600008484078012805D10848008808490880C6
:101270000120F3E700BF00BF0020EFE70020704728
:101280000020704720000010300000105C000010AB
:10129000500000102DE9F047F9480068C0F30160E4
:1012A00003287CD1F748006810F0030006D001281D
:1012B00033D002285FD003282ED100E000BFF048D1
:1012C0000068C0F3074000F101044FF00201EE484E
:1012D000D0F88800C0F30E0000F10100A1FB00016E
:1012E000EA4B4FF0000CA0FB037901FB039100FBDC
:1012F0000C1122466346384600F0FCF90546E448E6
:101300000068C0B200F1010422464FF000032846F5
:1013100000F0F0F9DF4908605DE0D9480068C0F3EB
:10132000074000F101044FF00201D748D0F88800CF
:10133000C0F30E0000F10100A1FB0010D64A4FF0EF
:10134000000CA1FB027900FB029001FB0C0122467C
:101350006346384600F0CEF90546CD480068C0B275
:1013600000F1010422464FF00003284600F0C2F9C4
:10137000C84908602FE0C2480068C0F3074000F188
:1013800001044FF00201C048D0F88800C0F30E00FD
:1013900000F10100A1FB00124FF4004000E01BE04F
:1013A0004FF00003A1FB007902FB009001FB030159
:1013B0002246384600F09EF90546B5480068C0B29E
:1013C00000F1010422464FF00003284600F092F994
:1013D000B049086000BF2FE0AA48006810F0030081
:1013E00006D0012810D0022819D0032823D100E00C
:1013F00000BFA7480068C0B200F10100A349B1FBDB
:10140000F0F0A449086016E0A1480068C0B200F1FD
:101410000100A149B1FBF0F09E4908600BE09C4837
:101420000068C0B200F101004FF40041B1FBF0F0E0
:101430009849086000BF00BFBDE8F08720209749A9
:1014400008609148D0F8A00110F0200F05D000BF2F
:101450009248006810F0400FFAD003208C490860D1
:101460004FF000008849C1F8A8018D4908604FF08D
:101470000100844908608B488B4908604FF0AA003E
:101480008A4908604FF0550008604FF00100884914
:1014900008604FF0AA00854908604FF055007A496E
:1014A000C1F88C0000BF7648006810F0806FFAD059
:1014B00003207F4908604FF0AA007349C1F88C00EF
:1014C0004FF055007949086000BF6D48006800F092
:1014D0004070B0F1407FF8D12320764908604FF08A
:1014E000AA006949C1F8AC004FF055007249086084
:1014F0004FF00100714908604FF0AA006E49086082
:101500004FF055006049C1F8AC0000BF6C4800685E
:1015100010F4806FFAD00320684908604FF0AA00E9
:101520005949C1F8AC004FF055006349086000BF4D
:101530006348006800F44070B0F5407FF8D161481E
:10154000614908604FF000004F49C1F8C8010846E2
:10155000006820F4704040F48040086070474848BC
:101560000068C0F30160032866D14648006810F0A7
:10157000030006D0012823D002283FD003285AD1E7
:1015800000E000BF3E480068C0F30E0000F101001B
:101590004FEA40013C48D0F88800C0F3074000F112
:1015A0000100B1FBF0F0394900FB01F0384909684E
:1015B000C9B201F10101B0FBF1F0444908603AE021
:1015C0002F480068C0F30E0000F101004FEA40010F
:1015D0002D48D0F88800C0F3074000F10100B1FBAE
:1015E000F0F02D4900FB01F029490968C9B201F169
:1015F0000101B0FBF1F0354908601CE020480068AB
:10160000C0F30E0000F101004FEA40011E48D0F87F
:101610008800C0F3074000F10100B1FBF0F04FEA91
:10162000C0311B480068C0B200F10100B1FBF0F00E
:101630002649086000BF58E01248006810F0030017
:1016400006D0012810D0022842D003284CD100E057
:1016500000BF0F480068C0B200F101000B49B1FBA8
:10166000F0F01A4908603FE009480068C0B200F194
:1016700001000949B1FBF0F01449086034E00000B2
:1016800088C00F400CC10F4000C00F4000093D0052
:1016900004C10F4054000010001BB700A0C10F4050
:1016A000ACC10F406300050084C00F408CC00F40E8
:1016B00080C00F40A4C00F40ACC00F40A0C00F407E
:1016C000A8C00F40DE872804C4C00F405800001097
:1016D00006480068C0B200F101004FF40041B1FBC0
:1016E000F0F00349086000BF00BF704704C10F401D
:1016F0005800001053EA020C00F069802DE9F04B0D
:101700004FF00006002B1FBFB3FA83F503FA05F470
:1017100024FA05F65E4012BF1643B2FA82F502FAC9
:1017200005F4C5F120051EBF22FA05FC44EA0C04AD
:10173000203556EA044C4FEA144418BF641C4FF09D
:1017400000084FF00009904271EB030C39D30029D7
:1017500019BFB1FA81F701FA07F6B0FA80F700FA7B
:1017600007F6C7F120071EBF20FA07FC46EA0C0661
:101770002037B6FBF4FCA7EB0507103F07F01F0B63
:10178000CBF120060CFA0BFB2CFA06F644BFB3464D
:101790000026202FA4BF5E464FF0000B5BEA060C2C
:1017A00008BF4FF0010B19EB0B09ABFB027C48EBB8
:1017B0000608C01B06FB02CC0BFB03CC71EB0C0133
:1017C000C1E70B46024641464846BDE8F08B13B5DB
:1017D0004FF000004FF00001AFF30080BDE81C4067
:1017E0007047000010B52848007810F01F0002D0A4
:1017F00001283ED13AE02448C078012804D00228CC
:1018000007D003282ED118E02048214C2060122355
:101810002AE02049002204E0087808B14888014401
:10182000521C194880789042F6D1087808B90020F7
:1018300010BD174801604B8816E01749002204E0EC
:10184000087808B108780144521C0F48807890420B
:10185000F6D1087808B90020EAE70D480160006871
:10186000037801E00020E3E700BF04E000BF0020B0
:10187000DEE70020DCE700BF05488088984201D9F8
:10188000034CA3800120D3E7200000106C1D000052
:10189000180000107E1D0000EC1D00002748007895
:1018A00010F01F0004D0012806D0022841D116E014
:1018B0002348244B18603EE02348007860B11F485D
:1018C0000079224B1B78984206DA0020204B1880C2
:1018D00018461C4B186001E0002070472BE01748A9
:1018E000007900F08F0111F0800F05D001F00F0397
:1018F0004FF48030984001E00120884002461248B1
:10190000007810B911F00F0F10D112480068104282
:101910000CD011480068104201D0012000E00020E6
:101920000B4B18801846074B186001E00020D4E7E5
:1019300001E00020D1E700BF0120CEE72000001029
:10194000000000101800001003000010100000102C
:101950005C000010040000100800001070B506467E
:101960003348007810F01F0004D001281DD0022851
:1019700058D11CE02E484088012813D146B1FFF70A
:10198000E6F82C48008840F002002A4908800BE065
:101990000020FFF7DCF82748008820F002002549E6
:1019A000088001E0002070BD3EE00020FBE72048F9
:1019B000007900F08F0414F0800F05D004F00F01BF
:1019C0004FF48030884001E00120A04005461A48CD
:1019D000007820B314F00F0F21D018480068284277
:1019E0001DD013484088C0B946B12046FFF714F90E
:1019F0001348006828431249086012E01148006843
:101A0000284201D00120CEE72046FFF712F90C480A
:101A10000068A8430A49086003E00020C3E70020EB
:101A2000C1E701E00020BEE700BF0120BBE70000E6
:101A3000200000100000001003000010040000103F
:101A4000080000100C0000102DE9F041002662484B
:101A5000007810F01F0F7DD15F48807800287AD081
:101A60005E4D7EE06878022804D0042851D0052815
:101A700073D150E0687958498978884245D15648F1
:101A8000807857490870287956490870002403E087
:101A9000002055490855641C042CF9D3012414E096
:101AA0000120A04051490968084202D02046FFF7B2
:101AB00099F84FF48030A0404C490968084203D09F
:101AC00044F08000FFF78EF8641C102CE8D34FF030
:101AD00001104649086000204549086045490860F2
:101AE0000120FFF735F8E87910F0400F06D04248A2
:101AF000008840F001004049088009E03E48008825
:101B000020F001003C49088002E06888054428E094
:101B100023E0EE7821E0E6B9A87800F08F0414F015
:101B2000800F05D004F00F014FF48030884001E0B1
:101B30000120A04007462D48006838432B49086023
:101B40002846FFF720F82046FFF73FF82046FFF72A
:101B500056F801E03BE009E000BF00BF28780544EB
:101B600000BF287800287FF47DAF26E000201C49C4
:101B70000870012414E00120A0401C4909680842B3
:101B800002D02046FFF72EF84FF48030A0401749CE
:101B90000968084203D044F08000FFF723F8641C72
:101BA000102CE8D34FF001101049086000201049B4
:101BB000086010490860FEF7CBFF074880780849A5
:101BC0000978884202D00020BDE8F08101E00020C1
:101BD000FAE700BF0120F7E7200000107E1D00009B
:101BE000030000101000001011000010040000108D
:101BF000080000100C000010000000102DE9F05F3C
:101C00000027B846BB46B9464248007800F01F009E
:101C1000012879D14048007810B90020BDE8F09F34
:101C20004FF0000A3D4C6AE06078022804D0042896
:101C30000BD005285FD11EE06079374909788842CA
:101C400002D0608804445AE055E0A77894F80380F5
:101C50004FF000092F480079B8420BD12D48807809
:101C6000404507D14FF0010A2D4810F807B0014652
:101C700001F807803FE027480079B8423AD1A078C0
:101C800000F08F0616F0800F05D006F00F014FF41C
:101C90008030884001E00120B04005461D48807832
:101CA000404515D11F48006828431E4908601E485A
:101CB0000068A8431C4908602046FEF764FF3046D0
:101CC000FEF783FF3046FEF79AFF49EA050911E067
:101CD000D8450FD119EA050F0CD112480068A84366
:101CE0001049086010480068A8430F490860304652
:101CF000FEF778FF00BF00BF2078044400BF2078C3
:101D0000002891D102E0FFE7002087E700BF50469E
:101D100084E7000020000010030000107E1D00007A
:101D20001100001004000010080000109F030000C4
:101D3000000000000000000077010000000000002B
:101D40000000000000000000000000000000000093
:101D50000000000000000000000000000000000083
:101D6000000000000000000000000000120100025E
:101D700000000040C91F02400001010203010902E6
:101D80006D00020100803209040000000101000022
:101D90000924010001270001010C240201010100B6
:101DA00001000000000924060201010300000924CB
:101DB0000303010300020009040100000102000006
:101DC00009040101010102000007240101010100D1
:101DD0000B24020101021001007D000905030140EE
:101DE00000010000072501000000000004030904B1
:101DF0001C034E00580050002000530065006D0089
:101E0000690063006F006E00640020002A034E002A
:101E10005800500020004C005000430031003700B3
:101E200078007800200053007000650061006B00AE
:101E30006500720020001A03440045004D004F0069
:101E40003000300030003000300030003000300012
:101E5000800008208001082010000000140000000D
:101E6000901E0000000000105C000000080100004F
:101E7000EC1E00005C0000102403000024010000A0
:101E8000EC1E0000000008202002000024010000D9
:101E90000000000000000000000000000000000042
:101EA0000000000000000000000000000000000032
:101EB000000000000000000020020820300208207E
:101EC0000000000000000000000000000000000012
:101ED0000000000000000000000000000000000002
:0C1EE0000001000000E1F50500093D00D4
:04000005000000CD2A
:00000001FF
